:020000040800F2
:1000000000000220DD1B00084D1000084F10000802
:10001000511000085310000855100008000000009F
:100020000000000000000000000000005710000861
:1000300059100008000000005B1000085D10000867
:100040002D1C00082D1C00082D1C00082D1C00086C
:100050002D1C00082D1C00082D1C00082D1C00085C
:100060002D1C00082D1C00082D1C00082D1C00084C
:100070002D1C00082D1C00082D1C00082D1C00083C
:100080002D1C00082D1C00082D1C00082D1C00082C
:100090002D1C00082D1C00082D1C00082D1C00081C
:1000A0002D1C00082D1C00082D1C00082D1C00080C
:1000B0002D1C00082D1C00082D1C00082D1C0008FC
:1000C0002D1C00082D1C00082D1C00082D1C0008EC
:1000D0002D1C00082D1C00082D1C00082D1C0008DC
:1000E0002D1C00082D1C00082D1C00082D1C0008CC
:1000F0002D1C00082D1C00082D1C00082D1C0008BC
:100100002D1C00082D1C00082D1C00082D1C0008AB
:100110002D1C00082D1C00082D1C00082D1C00089B
:100120002D1C00082D1C00082D1C00082D1C00088B
:100130002D1C00082D1C00082D1C00082D1C00087B
:100140002D1C00082D1C00082D1C00082D1C00086B
:100150002D1C00082D1C00082D1C00082D1C00085B
:100160002D1C00082D1C00082D1C00082D1C00084B
:100170002D1C00082D1C00082D1C0008000000008C
:080180002D1C00082D1C0008D5
:1001900010B5054C237833B9044B13B10448AFF3C1
:1001A00000800123237010BDDC010020000000004E
:1001B0005847000808B5034B1BB103490348AFF388
:1001C000008008BD00000000E00100205847000842
:1001D000034613F8012B002AFBD1181A0138704787
:1001E00001F0FF01102A2BDB10F0070F08D010F8E8
:1001F000013B013A8B422DD010F0070F42B3F6D1EC
:10020000F0B441EA012141EA014122F007047FF004
:1002100000070023F0E80256083C85EA010586EA5B
:10022000010685FA47F5A3FA87F586FA47F6A5FA97
:1002300087F68EB9EED1F0BC01F0FF0102F00702A3
:1002400032B110F8013B013A83EA010313B1F8D14E
:100250000020704701387047002D06BF354603382F
:10026000073815F0010F07D1013015F4807F02BF68
:10027000013015F4C03F0130F0BC0138704700BFB9
:1002800081F0004102E000BF83F0004330B54FEA47
:1002900041044FEA430594EA050F08BF90EA020FB4
:1002A0001FBF54EA000C55EA020C7FEA645C7FEA47
:1002B000655C00F0E2804FEA5454D4EB5555B8BF6A
:1002C0006D420CDD2C4480EA020281EA030382EADB
:1002D000000083EA010180EA020281EA0303362D6D
:1002E00088BF30BD11F0004F4FEA01314FF4801C40
:1002F0004CEA113102D0404261EB410113F0004F52
:100300004FEA03334CEA133302D0524263EB430308
:1003100094EA050F00F0A780A4F10104D5F1200EA6
:100320000DDB02FA0EFC22FA05F2801841F1000101
:1003300003FA0EF2801843FA05F359410EE0A5F1D5
:1003400020050EF1200E012A03FA0EFC28BF4CF006
:10035000020C43FA05F3C01851EBE37101F00045BC
:1003600007D54FF0000EDCF1000C7EEB00006EEBC9
:100370000101B1F5801F1BD3B1F5001F0CD3490853
:100380005FEA30004FEA3C0C04F101044FEA4452AA
:1003900012F5800F80F09A80BCF1004F08BF5FEA31
:1003A000500C50F1000041EB045141EA050130BD11
:1003B0005FEA4C0C404141EB0101013C28BFB1F523
:1003C000801FE9D291F0000F04BF01460020B1FA6E
:1003D00081F308BF2033A3F10B03B3F120020CDA41
:1003E0000C3208DD02F1140CC2F10C0201FA0CF01F
:1003F00021FA02F10CE002F11402D8BFC2F1200C84
:1004000001FA02F120FA0CFCDCBF41EA0C01904039
:10041000E41AA2BF01EB0451294330BD6FEA040482
:100420001F3C1CDA0C340EDC04F11404C4F120026D
:1004300020FA04F001FA02F340EA030021FA04F37F
:1004400045EA030130BDC4F10C04C4F1200220FAD6
:1004500002F001FA04F340EA0300294630BD21FA14
:1004600004F0294630BD94F0000F83F4801306BFDA
:1004700081F480110134013D4EE77FEA645C18BFCE
:100480007FEA655C29D094EA050F08BF90EA020F65
:1004900005D054EA000C04BF1946104630BD91EA5D
:1004A000030F1EBF0021002030BD5FEA545C05D160
:1004B0004000494128BF41F0004130BD14F580049F
:1004C0003CBF01F5801130BD01F0004545F0FE4113
:1004D00041F470014FF0000030BD7FEA645C1ABF48
:1004E000194610467FEA655C1CBF0B46024650EA7F
:1004F000013406BF52EA033591EA030F41F40021AB
:1005000030BD00BF90F0000F04BF0021704730B530
:100510004FF4806404F132044FF000054FF0000105
:1005200050E700BF90F0000F04BF0021704730B5C6
:100530004FF4806404F1320410F0004548BF40429B
:100540004FF000013EE700BF42004FEAE2014FEAF0
:1005500031014FEA02701FBF12F07F4393F07F4FCB
:1005600081F06051704732F07F4208BF704793F0CE
:100570007F4F04BF41F40021704730B54FF46074E1
:1005800001F0004521F000411CE700BF50EA0102E4
:1005900008BF704730B54FF000050AE050EA01028D
:1005A00008BF704730B511F0004502D5404261EBFD
:1005B00041014FF4806404F132045FEA915C3FF43E
:1005C000D8AE4FF003025FEADC0C18BF03325FEADB
:1005D000DC0C18BF033202EBDC02C2F1200300FA8C
:1005E00003FC20FA02F001FA03FE40EA0E0021FAB1
:1005F00002F11444BDE600BF70B54FF0FF0C4CF49F
:10060000E06C1CEA11541DBF1CEA135594EA0C0F50
:1006100095EA0C0F00F0DEF82C4481EA030621EA8B
:100620004C5123EA4C5350EA013518BF52EA0335C6
:1006300041F4801143F4801338D0A0FB02CE4FF078
:100640000005E1FB02E506F00042E0FB03E54FF0A8
:100650000006E1FB03569CF0000F18BF4EF0010EA0
:10066000A4F1FF04B6F5007F64F5407404D25FEA9C
:100670004E0E6D4146EB060642EAC62141EA55514F
:100680004FEAC52040EA5E504FEACE2EB4F1FD0C91
:1006900088BFBCF5E06F1ED8BEF1004F08BF5FEA0F
:1006A000500E50F1000041EB045170BD06F00046C1
:1006B00046EA010140EA020081EA0301B4EB5C046E
:1006C000C2BFD4EB0C0541EA045170BD41F4801166
:1006D0004FF0000E013C00F3AB8014F1360FDEBF8B
:1006E000002001F0004170BDC4F10004203C35DA67
:1006F0000C341BDC04F11404C4F1200500FA05F3EA
:1007000020FA04F001FA05F240EA020001F000428A
:1007100021F0004110EBD37021FA04F642EB060100
:100720005EEA430E08BF20EAD37070BDC4F10C042A
:10073000C4F1200500FA04F320FA05F001FA04F2EE
:1007400040EA020001F0004110EBD37041F10001DA
:100750005EEA430E08BF20EAD37070BDC4F12005E5
:1007600000FA05F24EEA020E20FA04F301FA05F24D
:1007700043EA020321FA04F001F0004121FA04F2F5
:1007800020EA020000EBD3705EEA430E08BF20EAC5
:10079000D37070BD94F0000F0FD101F000464000FF
:1007A00041EB010111F4801F08BF013CF7D041EA81
:1007B000060195F0000F18BF704703F00046520085
:1007C00043EB030313F4801F08BF013DF7D043EA56
:1007D0000603704794EA0C0F0CEA135518BF95EA0C
:1007E0000C0F0CD050EA410618BF52EA4306D1D193
:1007F00081EA030101F000414FF0000070BD50EAB2
:10080000410606BF1046194652EA430619D094EA3B
:100810000C0F02D150EA013613D195EA0C0F05D125
:1008200052EA03361CBF104619460AD181EA030179
:1008300001F0004141F0FE4141F470014FF0000031
:1008400070BD41F0FE4141F4780170BD70B54FF0CC
:10085000FF0C4CF4E06C1CEA11541DBF1CEA13554C
:1008600094EA0C0F95EA0C0F00F0A7F8A4EB05042E
:1008700081EA030E52EA03354FEA013100F0888025
:100880004FEA03334FF0805545EA131343EA1263EE
:100890004FEA022245EA111545EA10654FEA0026A3
:1008A0000EF000419D4208BF964244F1FD0404F55C
:1008B000407402D25B084FEA3202B61A65EB0305B8
:1008C0005B084FEA32024FF480104FF4002CB6EB75
:1008D000020E75EB030E22BFB61A754640EA0C00F5
:1008E0005B084FEA3202B6EB020E75EB030E22BF35
:1008F000B61A754640EA5C005B084FEA3202B6EB76
:10090000020E75EB030E22BFB61A754640EA9C0034
:100910005B084FEA3202B6EB020E75EB030E22BF04
:10092000B61A754640EADC0055EA060E18D04FEAC2
:10093000051545EA16754FEA06164FEAC30343EA62
:1009400052734FEAC2025FEA1C1CC0D111F4801F2F
:100950000BD141EA00014FF000004FF0004CB6E728
:1009600011F4801F04BF01430020B4F1FD0C88BFC7
:10097000BCF5E06F3FF6AFAEB5EB030C04BFB6EBD2
:10098000020C5FEA500C50F1000041EB045170BDC5
:100990000EF0004E4EEA113114EB5C04C2BFD4EBF2
:1009A0000C0541EA045170BD41F480114FF0000E76
:1009B000013C90E645EA060E8DE60CEA135594EAF2
:1009C0000C0F08BF95EA0C0F3FF43BAF94EA0C0FF5
:1009D0000AD150EA01347FF434AF95EA0C0F7FF46A
:1009E00025AF104619462CE795EA0C0F06D152EABE
:1009F00003353FF4FDAE1046194622E750EA4106A2
:100A000018BF52EA43067FF4C5AE50EA41047FF4B2
:100A10000DAF52EA43057FF4EBAE12E74FF0FF3C17
:100A200006E000BF4FF0010C02E000BF4FF0010CE8
:100A30004DF804CD4FEA410C7FEA6C5C4FEA430C61
:100A400018BF7FEA6C5C1BD001B050EA410C0CBFB0
:100A500052EA430C91EA030F02BF90EA020F002012
:100A6000704710F1000F91EA030F58BF994208BF79
:100A700090422CBFD8176FEAE37040F00100704736
:100A80004FEA410C7FEA6C5C02D150EA013C07D18D
:100A90004FEA430C7FEA6C5CD6D152EA033CD3D0D8
:100AA0005DF8040B704700BF8446104662468C46D2
:100AB0001946634600E000BF01B5FFF7B7FF002805
:100AC00048BF10F1000F01BD4DF808EDFFF7F4FF2E
:100AD0000CBF012000205DF808FB00BF4DF808EDB9
:100AE000FFF7EAFF34BF012000205DF808FB00BFDC
:100AF0004DF808EDFFF7E0FF94BF012000205DF8FE
:100B000008FB00BF4DF808EDFFF7CEFF94BF0120B2
:100B100000205DF808FB00BF4DF808EDFFF7C4FFAB
:100B200034BF012000205DF808FB00BF4FEA410CF4
:100B30007FEA6C5C02D150EA013C0AD14FEA430CD7
:100B40007FEA6C5C02D152EA033C02D14FF0000014
:100B500070474FF0010070474FEA410212F5001252
:100B600015D211D56FF47873B3EB625212D94FEAF4
:100B7000C12343F0004343EA505311F0004F23FADE
:100B800002F018BF404270474FF00000704750EA33
:100B9000013005D111F0004008BF6FF000407047F0
:100BA0004FF00000704700BF53B94AB9002908BF91
:100BB00000281CBF4FF0FF314FF0FF3000F074B938
:100BC000ADF1080C6DE904CE00F006F8DDF804E0A4
:100BD000DDE9022304B070472DE9F047089D044683
:100BE0008E46002B4DD18A42944669D9B2FA82F2E0
:100BF00052B101FA02F3C2F1200120FA01F10CFA1C
:100C000002FC41EA030E94404FEA1C48210CBEFB53
:100C1000F8F61FFA8CF708FB16E341EA034306FBDC
:100C200007F199420AD91CEB030306F1FF3080F06B
:100C30001F81994240F21C81023E63445B1AA4B2B8
:100C4000B3FBF8F008FB103344EA034400FB07F75A
:100C5000A7420AD91CEB040400F1FF3380F00A819B
:100C6000A74240F207816444023840EA0640E41B90
:100C700000261DB1D4400023C5E900433146BDE83C
:100C8000F0878B4209D9002D00F0EF800026C5E9DE
:100C9000000130463146BDE8F087B3FA83F6002EF6
:100CA0004AD18B4202D3824200F2F980841A61EB6E
:100CB000030301209E46002DE0D0C5E9004EDDE78C
:100CC00002B9FFDEB2FA82F2002A40F09280A1EB74
:100CD0000C014FEA1C471FFA8CFE0126200CB1FBC9
:100CE000F7F307FB131140EA01410EFB03F08842C2
:100CF00008D91CEB010103F1FF3802D2884200F24F
:100D0000CB804346091AA4B2B1FBF7F007FB1011E0
:100D100044EA01440EFB00FEA64508D91CEB04047E
:100D200000F1FF3102D2A64500F2BB800846A4EBD9
:100D30000E0440EA03409CE7C6F12007B34022FAC4
:100D400007FC4CEA030C20FA07F401FA06F31C43F3
:100D5000F9404FEA1C4900FA06F3B1FBF9F8200C00
:100D60001FFA8CFE09FB181140EA014108FB0EF046
:100D7000884202FA06F20BD91CEB010108F1FF3A96
:100D800080F08880884240F28580A8F102086144A2
:100D9000091AA4B2B1FBF9F009FB101144EA0141B0
:100DA00000FB0EFE8E4508D91CEB010100F1FF345B
:100DB0006CD28E456AD90238614440EA0840A0FBF3
:100DC0000294A1EB0E01A142C846A64656D353D0C9
:100DD0005DB1B3EB080261EB0E0101FA07F722FAED
:100DE00006F3F1401F43C5E9007100263146BDE816
:100DF000F087C2F12003D8400CFA02FC21FA03F379
:100E0000914001434FEA1C471FFA8CFEB3FBF7F0F9
:100E100007FB10360B0C43EA064300FB0EF69E421E
:100E200004FA02F408D91CEB030300F1FF382FD2B7
:100E30009E422DD9023863449B1B89B2B3FBF7F65F
:100E400007FB163341EA034106FB0EF38B4208D938
:100E50001CEB010106F1FF3816D28B4214D9023E79
:100E60006144C91A46EA004638E72E46284605E797
:100E70000646E3E61846F8E64B45A9D2B9EB020868
:100E800064EB0C0E0138A3E74646EAE7204694E7F8
:100E90004046D1E7D0467BE7023B614432E730462B
:100EA00009E76444023842E7704700BF72B6FEE7C4
:100EB00000B595B03022002108A800F0DDFE002327
:100EC000039304930593069307930193204A116CAF
:100ED00041F080511164126C02F080520192019A2B
:100EE00002931C4B1A6842F480421A601B6803F498
:100EF00080430293029B012308934FF480330993AC
:100F000002220E924FF480030F9304231093A82122
:100F100011911292139308A800F078F998B90F2351
:100F2000039302230493002305934FF4A0530693E5
:100F30004FF480530793052103A800F0CDFB20B99F
:100F400015B05DF804FBFFF7B1FFFFF7AFFF00BF7F
:100F5000003802400070004008B500F009FEFFF7BD
:100F6000A7FF00F003F800F01DF8FEE782B00021B3
:100F700000910B4B1A6B42F080021A631A6B02F05D
:100F800080020092009A01911A6B42F001021A63EA
:100F90001B6B03F001030193019B02B0704700BF7C
:100FA0000038024008B50A480A4B03604FF4E133A9
:100FB000436000238360C36003610C22426183614C
:100FC000C36100F0F3F800B908BDFFF76FFFFBE75E
:100FD000F80100200010014000B589B00023039300
:100FE0000493059306930793026803F1804303F586
:100FF00088339A4202D009B05DF804FB00210191C8
:1010000003F594335A6C42F010025A645A6C02F0A1
:1010100010020192019A02911A6B42F001021A63C6
:101020001B6B03F001030293029B4FF4C063039315
:1010300002230493032306930723079303A902487B
:1010400000F020FCD7E700BF00000240FEE7FEE70B
:10105000FEE7FEE7FEE770477047704708B500F00F
:10106000A1FD08BD82B0002100910B4B5A6C42F4E7
:1010700080425A645A6C02F480420092009A0191B4
:101080001A6C42F080521A641B6C03F08053019377
:10109000019B02B0704700BF0038024038B50446DB
:1010A0000268136923F44053C1680B4313618368DA
:1010B0000269134342691343C2691A430168CB684A
:1010C00023F4164323F00C031343CB6002685369E7
:1010D00023F4407381690B4353610368314A93429F
:1010E00006D002F58062934202D000F0ABFB01E033
:1010F00000F0B8FBE369B3F5004F29D000210318D5
:1011000049411B1841F10001C90041EA5371DB005C
:10111000181863684FEA83024FEA937341F10001A4
:10112000FFF742FD204DA5FB00325109642303FB6C
:1011300011031B013233A5FB03235B0903F0F0020B
:1011400002EB011203F00F03216813448B6038BDDA
:101150000023021843EB0301121841F10001C900FA
:1011600041EA5271D200101841F1000162689218F0
:101170005B41FFF719FD0C4DA5FB003251096423BB
:1011800003FB1103DB003233A5FB03235B095A0089
:1011900002F4F87202EB011203F007032168134412
:1011A0008B60D4E7001001401F85EB5158B310B598
:1011B000044690F83D300BB3242384F83D30226878
:1011C000D36823F40053D3602046FFF767FF2268FB
:1011D000136923F4904313612268536923F02A03AF
:1011E00053612268D36843F40053D3600020206425
:1011F000202384F83D3084F83E3010BD80F83C3028
:10120000FFF7EAFED8E7012070470000002800F051
:10121000E08170B582B00446036813F0010F3BD043
:101220009F4B9B6803F00C03042B2CD09C4B9B68BA
:1012300003F00C03082B21D06368B3F5803F4FD037
:10124000B3F5A02F52D0964B1A6822F480321A6060
:101250001A6822F480221A606368002B50D000F0D4
:10126000ADFC05468E4B1B6813F4003F14D100F013
:10127000A5FC401B6428F5D90320B1E1884B5B68CD
:1012800013F4800FD8D0864B1B6813F4003F03D0B3
:101290006368002B00F09F81236813F0020F54D085
:1012A0007F4B9B6813F00C0F3ED07D4B9B6803F087
:1012B0000C03082B33D0E368002B68D0794B012254
:1012C0001A6000F07BFC0546754B1B6813F0020F9B
:1012D00054D100F073FC401B0228F5D903207FE1B4
:1012E0006F4A136843F480331360B5E76C4B1A6898
:1012F00042F480221A601A6842F480321A60ABE726
:1013000000F05CFC0546664B1B6813F4003FC3D03D
:1013100000F054FC401B6428F5D9032060E1604BC9
:101320005B6813F4800FC6D15D4B1B6813F0020F8E
:1013300003D0E368012B40F05081594A136823F031
:10134000F803216943EAC1031360236813F0080F0F
:1013500042D063696BB3534B0122C3F8802E00F077
:101360002DFC05464E4B5B6F13F0020F34D100F09D
:1013700025FC401B0228F5D9032031E1484A1368B7
:1013800023F0F803216943EAC1031360DDE7454B0D
:1013900000221A6000F012FC0546414B1B6813F056
:1013A000020FD2D000F00AFC401B0228F5D903201E
:1013B00016E13C4B0022C3F8802E00F0FFFB0546EF
:1013C000374B5B6F13F0020F06D000F0F7FB401BAA
:1013D0000228F5D9032003E1236813F0040F77D026
:1013E0002F4B1B6C13F0805F33D1002301932C4BE8
:1013F0001A6C42F080521A641B6C03F08053019304
:10140000019B0125284B1B6813F4807F23D0A36820
:10141000012B34D0052B38D0214B1A6F22F001025A
:101420001A671A6F22F004021A67A368002B3DD0D6
:1014300000F0C4FB06461A4B1B6F13F0020F46D197
:1014400000F0BCFB801B41F288339842F3D90320A3
:10145000C6E00025D6E7144A136843F4807313608E
:1014600000F0ACFB0646104B1B6813F4807FCED116
:1014700000F0A4FB801B0228F5D90320B0E0084A45
:10148000136F43F001031367CFE7054B1A6F42F068
:1014900004021A671A6F42F001021A67C5E700BF1B
:1014A00000380240000047420070004000F086FB18
:1014B0000646524B1B6F13F0020F08D000F07EFB64
:1014C000801B41F288339842F3D9032088E0EDB9BC
:1014D000A369002B00F08380484A926802F00C0256
:1014E000082A51D0022B17D0454B00221A6600F073
:1014F00065FB0446414B1B6813F0007F42D000F0AF
:101500005DFB001B0228F5D9032069E03B4A136C00
:1015100023F080531364DBE7394B00221A6600F096
:101520004DFB0546354B1B6813F0007F06D000F0DD
:1015300045FB401B0228F5D9032051E0E369226AEC
:101540001343626A43EA8213A26A5208013A43EAE9
:101550000243E26A43EA0263284A5360284B0122AD
:101560001A6600F02BFB0446244B1B6813F0007F27
:1015700006D100F023FB001B0228F5D903202FE041
:1015800000202DE000202BE0012B2BD01B4B5B68B3
:1015900003F48001E269914226D103F03F02216AFF
:1015A0008A4223D1616A47F6C0721A40B2EB811FAA
:1015B0001ED103F44031A26A5208013AB1EB024F46
:1015C00018D103F07063E26AB3EB026F14D100200C
:1015D00006E001207047012002E0012000E0002029
:1015E00002B070BD0120FBE70120F9E70120F7E719
:1015F0000120F5E70120F3E70120F1E70038024080
:101600000000474208B5314B9B6803F00C03042BE4
:1016100057D0082B57D12D4B5A6802F03F025B6818
:1016200013F4800F2AD0294B5968C1F3881C4FEA64
:101630004C11B1EB0C006EEB0E0E4FEA8E1343EA29
:1016400090638101091A63EB0E03DB0043EA5173D7
:10165000C90011EB0C0C43F10003590200234FEABF
:101660004C2041EADC51FFF79FFA184B5B68C3F34B
:10167000014301335B00B0FBF3F025E0134B5968E5
:10168000C1F3881C4FEA4C11B1EB0C006EEB0E0E4F
:101690004FEA8E1343EA90638101091A63EB0E034C
:1016A000DB0043EA5173C90011EB0C0C43F100035A
:1016B000990200234FEA8C2041EA9C51FFF774FA0B
:1016C000D3E7034800E0034808BD00BF00380240EC
:1016D00000127A000024F400002800F09B8070B50E
:1016E0000D4604464F4B1B6803F007038B4208D29C
:1016F000CBB24C4A1370136803F007038B4240F0DF
:101700008B80236813F0020F17D013F0040F04D05E
:10171000454A936843F4E0539360236813F0080F3D
:1017200004D0414A936843F4604393603E4A93680F
:1017300023F0F003A1680B439360236813F0010FBB
:1017400032D06368012B21D09A1E012A25D9364A4E
:10175000126812F0020F61D033498A6822F0030246
:1017600013438B6000F02AFA06462F4B9B6803F068
:101770000C036268B3EB820F16D000F01FFA801BD7
:1017800041F288339842F0D9032042E0264A126899
:1017900012F4003FE0D101203BE0234A126812F02E
:1017A000007FD9D1012034E01E4B1B6803F00703F2
:1017B000AB4207D9EAB21B4B1A701B6803F0070350
:1017C000AB422DD1236813F0040F06D0164A93685C
:1017D00023F4E053E1680B439360236813F0080F90
:1017E00007D0114A936823F46043216943EAC10397
:1017F0009360FFF707FF0C4B9B68C3F303130B4A7F
:10180000D35CD8400A4B18600A4B186800F08AF97C
:10181000002070BD012070470120FAE70120F8E7A1
:101820000120F6E7003C0240003802407047000803
:101830000800002004000020014B1868704700BF1A
:101840000800002008B5FFF7F7FF044B9B68C3F3BF
:101850008223034AD35CD84008BD00BF0038024051
:101860008047000808B5FFF7E7FF044B9B68C3F308
:101870004233034AD35CD84008BD00BF0038024061
:101880008047000800230F2B00F2E48070B582B07F
:1018900060E085685E000324B44025EA0405CC6856
:1018A000B4402C438460456825EA02054C68C4F3C3
:1018B00000129A402A4342605AE0DC08083450F88B
:1018C000246003F0070295000F22AA4026EA020EC8
:1018D0000A69AA4042EA0E0240F824205CE007228E
:1018E00000E0002202FA0EF22A4302345A4D45F873
:1018F00024205A4A94686FEA0C0224EA0C054E68C8
:1019000016F4801F01D04CEA0405544CA560E4682D
:1019100002EA04054E6816F4001F01D04CEA0405E3
:101920004E4CE560646802EA04054E6816F4003F18
:1019300001D04CEA0405494C6560246822404D689A
:1019400015F4803F01D04CEA0402444C226001337C
:101950000F2B7DD801229A400C6804EA020C32EA6F
:101960000404F4D14C6804F00304013C012C90D928
:101970004A6802F00302032A09D0C4685D0003220A
:10198000AA4024EA02048A68AA402243C2604A6844
:1019900002F00302022A90D004684FEA430E0322A9
:1019A00002FA0EF224EA02044A6802F0030202FA82
:1019B0000EF2224302604A6812F4403FC7D0002270
:1019C0000192274A546C44F480445464526C02F4EB
:1019D00080420192019A9C08A51C1F4A52F825508A
:1019E00003F003024FEA820E0F2202FA0EF225EAFA
:1019F00002051C4A90423FF474AF02F580629042A7
:101A00001AD002F58062904218D002F580629042AE
:101A100016D002F58062904214D002F580629042A6
:101A200012D002F58062904210D002F5806290429E
:101A30003FF455AF082255E7012253E7022251E750
:101A400003224FE704224DE705224BE7062249E730
:101A500002B070BD704700BF00380140003C01403B
:101A60000038024000000240074AD36823F4E063D4
:101A70001B041B0C000200F4E060034343F0BF634F
:101A800043F40033D360704700ED00E000B5194B1C
:101A9000DB68C3F30223C3F1070CBCF1040F28BFBA
:101AA0004FF0040C03F1040EBEF1060F18D9033BEE
:101AB0004FF0FF3E0EFA0CFC21EA0C0199400EFAA1
:101AC00003F322EA0303194300280BDB0901C9B21F
:101AD00000F1604000F5614080F800135DF804FB00
:101AE0000023E5E700F00F000901C9B2024B1954C9
:101AF000F4E700BF00ED00E014ED00E00138B0F1C4
:101B0000807F0BD24FF0E0235861054AF02182F824
:101B100023100020986107221A6170470120704746
:101B200000ED00E010B504460E4B18784FF47A73C0
:101B3000B3FBF0F30C4A1068B0FBF3F0FFF7DEFFE5
:101B400068B90F2C01D901200AE0002221464FF08C
:101B5000FF30FFF79BFF054B1C60002000E00120D9
:101B600010BD00BF0000002008000020040000207D
:101B700008B50B4B1A6842F400721A601A6842F4F6
:101B800080621A601A6842F480721A600320FFF7BC
:101B90006BFF0F20FFF7C6FFFFF764FA002008BDB8
:101BA000003C0240034A1168034B1B780B4413604E
:101BB000704700BF3C02002000000020014B186865
:101BC000704700BF3C020020034AD2F8883043F43B
:101BD0007003C2F88830704700ED00E0DFF834D0C1
:101BE0000D480E490E4A002302E0D458C450043375
:101BF000C4188C42F9D30B4A0B4C002301E013604C
:101C00000432A242FBD3FFF7DFFF00F011F8FFF729
:101C1000A3F970470000022000000020DC01002032
:101C2000BC4B0008DC01002054020020FEE700004D
:101C300070B50D4D0D4C641BA4100026A64209D1B1
:101C40000B4D0C4C02F088FD641BA4100026A6422C
:101C500005D170BD55F8043B98470136EEE755F8BD
:101C6000043B98470136F2E7B44B0008B44B000838
:101C7000B44B0008B84B000802440346934200D11D
:101C8000704703F8011BF9E72DE9FF4755EC104BAE
:101C9000002D0E4619462B46BBBF05F100431D46DD
:101CA00000232D230B700D9BDDF830A0914623F00F
:101CB0002008BCBF22461446B8F1460F05D0B8F143
:101CC000450F00D10136022100E0032103AB01934F
:101CD00002AB009345EC104B5346324600F0CCFC6F
:101CE000B8F1470F074602D119F0010F22D0B8F121
:101CF000460F07EB060910D13B78302B0AD10022A2
:101D0000002320462946FEF7DFFE18B9C6F101067A
:101D1000CAF80060DAF80030994400220023204617
:101D20002946FEF7D1FE08B1CDF80C903022039B76
:101D30004B4507D3039B0E9ADB1B3846136004B058
:101D4000BDE8F087591C03911A70F0E7F7B5034618
:101D50000029B8BF494203F8022BB4BF2D222B2221
:101D6000092942702ADD0DF10704A4460A27A64678
:101D70000A4691FBF7F607FB16153035632A04F186
:101D8000FF340EF8015C3146F1DC3031AEF1020572
:101D900004F8011C441C294661450AD30DF10902CF
:101DA000A2EB0E02654588BF00221344181A03B047
:101DB000F0BD11F8012B04F8012FEDE7302330318D
:101DC0008370C170031DF1E72DE9F04F2DED028BFB
:101DD0008DB00C46DDF8608016461F46054601F0C2
:101DE00039FAD0F800A05046FEF7F2F900230A9322
:101DF00023680593D8F8003094F818B0073323F01F
:101E0000070303F10802C8F80020D3E90023C4E95E
:101E10001223D4E9128929F000430793CDF81880E2
:101E200008EE100A9F4BDDE906014FF0FF32FEF786
:101E30007DFE88BBDDE906019A4B4FF0FF32FEF7CD
:101E400057FE48BB0022002340464946FEF746FEA7
:101E500010B12D2384F84330934B9448BBF1470FC6
:101E600094BF9846804603232361059B23F0040218
:101E700022604FF00009009733460BAA21462846FE
:101E800000F0D8F9013040F090804FF0FF300DB0F5
:101E9000BDEC028BBDE8F08F42464B4640464946BA
:101EA000FEF744FE40B14B46002BBCBF2D2384F807
:101EB00043307F487F4BD1E763680BF0DF02069227
:101EC0005A1C3FD106236360059B616843F480621E
:101ED000002303930AABCDE901B309AB49EC108BA6
:101EE000009322600DF123032846FFF7CDFE069BE9
:101EF0000999472B804608D1C81C02DB63689942C8
:101F000041DDABF1020B5FFA8BFBBBF1650F20D813
:101F100001395A4604F150000991FFF717FF0A9A58
:101F20001318012A8146236102DC2268D20701D5F9
:101F3000013323619DF82330002B9CD02D2384F89E
:101F4000433098E7069A472ABED1002BBCD1012323
:101F5000B9E7BBF1660F18D1002963680BDD216179
:101F600013B92268D00702D501330B442361A16560
:101F70004FF00009DEE713B92268D20701D502331A
:101F8000F4E70123F2E74FF0670B0A9B994205DB68
:101F900023682161D807EAD54B1CE7E70029D4BFA5
:101FA000C1F1020201221344E0E723685A0507D475
:101FB0002369424631462846B84701302CD164E7B0
:101FC000BBF1650F40F2E080D4E91201002200234A
:101FD000FEF77AFD002834D0374A012331462846DF
:101FE000B84701303FF451AFDDE909239A4202DBE3
:101FF0002368D80710D518EE103A524631462846C5
:10200000B84701303FF441AF4FF0000804F11A091E
:102010000A9B013B434509DC23689B0700F10581CE
:10202000E0680B9B9842B8BF184630E701234A4648
:1020300031462846B84701303FF427AF08F1010880
:10204000E6E7099B002B39DC1B4A01233146284671
:10205000B84701303FF419AFDDE90923134302D13A
:102060002368D907D8D518EE103A5246314628468B
:10207000B84701303FF409AF4FF0000904F11A0AE4
:10208000099B5B424B4501DC0A9B92E701235246C8
:1020900031462846B84701303FF4F7AE09F101094F
:1020A000EEE700BFFFFFEF7F8C4700089047000876
:1020B00098470008944700089C4700080A9AA36DB7
:1020C0009A42A8BF1A46002A914637DC4FF0000B0F
:1020D00029EAE97904F11A02A36D0593A3EB090338
:1020E0005B4533DCDDE909239A423BDB2368DA07F1
:1020F00038D40A9B059A09999A1AA3EB01099145CC
:10210000A8BF9146B9F1000F35DC4FF0000829EA6D
:10211000E97904F11A0ADDE909239B1AA3EB090303
:1021200043457FF779AF0123524631462846B847E9
:1021300001303FF4AAAE08F10108ECE7134631463E
:1021400042462846B8470130C0D19EE601233146B9
:1021500028460592B84701303FF497AE059A0BF137
:10216000010BB9E718EE103A524631462846B847F7
:102170000130BED189E6059A4B4642443146284695
:10218000B8470130C1D180E60A9A012A01DCDB0799
:1021900038D50123424631462846B84701303FF43E
:1021A00074AE18EE103A524631462846B847013010
:1021B0003FF46BAED4E9120100220023FEF784FC49
:1021C000D8B90A9B08F10102013B31462846B847BD
:1021D00001300ED159E60123524631462846B84710
:1021E00001303FF452AE08F101080A9B013B434520
:1021F000F1DC4B4604F15002DCE64FF0000804F13C
:102200001A0AF2E701234246DFE701234A46314634
:102210002846B84701303FF438AE08F10108E368BA
:102220000B995B1A4345F0DCFAE64FF0000804F125
:102230001909F4E72DE9F047164699468A680B69B3
:10224000DDF820809342B8BF1346336091F84320F5
:1022500007460C460AB1013333602368990642BF32
:10226000336802333360256815F0060506D104F1A2
:10227000190AE36832689B1AAB4226DC94F84320C3
:10228000131E226818BF012392062BD404F14302C7
:1022900049463846C04701301ED02368E568326899
:1022A00003F00603042B08BFAD1AA36822690CBF14
:1022B00025EAE57500259342C4BF9B1AED18002658
:1022C0001A34B5421AD1002008E00123524649468B
:1022D0003846C047013003D14FF0FF30BDE8F087EA
:1022E0000135C6E7E1185A1C302081F8430022442A
:1022F00094F8451082F843100233C7E701232246C1
:1023000049463846C0470130E6D00136D9E70000DB
:102310002DE9FF470F7E0C9D782F914680460C4695
:102320009A4601F1430207D8622F0AD8002F00F025
:10233000D880582F00F0A38004F1420584F8427041
:102340003AE0A7F16303152BF6D801A151F823F069
:10235000A9230008BD2300083923000839230008F9
:102360003923000839230008BD2300083923000859
:10237000392300083923000839230008C92400083C
:10238000ED230008AB240008392300083923000896
:10239000EB24000839230008ED2300083923000846
:1023A00039230008B32400082B681A1D1B682A6013
:1023B00004F1420584F842300123A3E02068296833
:1023C000060601F104030AD50E682B60002E03DA1D
:1023D0002D23764284F843305E480A2319E00E68C4
:1023E0002B6010F0400F18BF36B2EFE72B68206863
:1023F000191D2960010601D51E6802E04606FBD5BD
:102400001E8854486F2F0CBF08230A23002184F82C
:1024100043106568A560002DA2BF216821F004016A
:1024200021600EB9002D4DD01546B6FBF3F103FB2C
:102430001167C75D05F8017D3746BB420E46F4D9EA
:10244000082B0BD12368DE0708D523696168994200
:10245000DEBF302305F8013C05F1FF35521B226138
:10246000CDF800A04B4603AA21464046FFF7E2FE06
:1024700001304CD14FF0FF3004B0BDE8F087354853
:1024800081F845702968236851F8046B29601D069E
:1024900014D5DF0744BF43F0200323601EB923682F
:1024A00023F0200323601023B0E7236843F02003C8
:1024B00023607823284884F84530E3E7590648BF6D
:1024C000B6B2E6E71546BBE72B6826686169181DBA
:1024D000286035061B6801D5196002E07006FBD53F
:1024E0001980002323611546BAE72B681A1D2A605C
:1024F0001D68626800212846FDF772FE08B1401B86
:10250000606063682361002384F84330A8E723698F
:102510002A4649464046D0470130ABD023689B0746
:1025200013D4E068039B9842B8BF1846A4E7012380
:10253000324649464046D04701309BD00135E368DA
:1025400003995B1AAB42F2DCEBE7002504F11906B4
:10255000F5E700BF9E470008AF4700082DE9F74F99
:1025600003690C69A3420746C0F28180013C01F176
:10257000140800F1140505EB8403019358F8243086
:1025800055F8242001339A424FEA840B08EB840962
:10259000B2FBF3F631D34FF0000E4046AC46F246A4
:1025A00050F8042B93B206FB03E34FEA134E9BB2A1
:1025B000AAEB0303DCF800A0120C13FA8AF306FB63
:1025C00002E20093009B4FEA124E92B2C2EB1A4213
:1025D00002EB2342BDF80030814543EA02434CF848
:1025E000043B4FEA224ADBD255F80B302BB9019B52
:1025F000043B9D421A462ED33C61384601F0C6F892
:10260000002824DB013628464FF0000C58F8042B34
:10261000D0F800E093B2ACEB0303120C13FA8EF384
:10262000C2EB1E4202EB23429BB243EA0243C14586
:1026300040F8043B4FEA224CE8D255F8242005EB41
:10264000840322B9043B9D421A460AD33C613046BA
:1026500003B0BDE8F08F1268043B002ACCD1013CE6
:10266000C7E71268043B002AF0D1013CEBE70020E9
:10267000EEE70000000000002DE9F04F2DED048B87
:1026800057EC106B93B0456ADDF88080069110EE30
:1026900010AA044609920C93BB4675B9102000F0AD
:1026A000DDFD0246606220B9A74BEA21A74801F090
:1026B00075FAC0E901550560C560636A196851B1D2
:1026C0005A684A60012393408B60204600F01CFE4C
:1026D000636A00221A603B1EAABF002323F0004B4E
:1026E000C8F800309A4BBCBF0122C8F8002033EA7A
:1026F0000B031BD10C9A42F20F731360CBF313033D
:10270000334300F09285219B63B9924B22E0924BB8
:1027100001930833219A1360019813B0BDEC048B28
:10272000BDE8F08F8B4B01930333F3E700220023C6
:1027300050465946FEF7C8F94BEC19AB804658B1E4
:102740000C9A01231360219B002B00F06B858348BA
:102750001860431E0193DFE74BEC10AB10AA11A9E0
:10276000204601F0B9F8CBF30A5508EE100A002D07
:1027700000F0848019EE903AC3F3130343F07F57BF
:10278000564647F44017A5F2FF35CDF83880744B14
:10279000002230463946FDF777FD65A3D3E90023D3
:1027A000FDF72AFF64A3D3E90023FDF76FFD06467A
:1027B00028460F46FDF7B6FE61A3D3E90023FDF7D7
:1027C0001BFF02460B4630463946FDF75FFD0646C5
:1027D0000F46FEF7C1F9002200900023304639462B
:1027E000FEF77CF950B10098FDF79CFE32463B465F
:1027F000FEF76AF910B9009B013B0093009B162B72
:102800005AD8009A574B03EBC203D3E9002351EC8B
:10281000190BFEF763F9002850D0009B013B009391
:1028200000230B93109B5D1B6B1E059345BFC5F1E9
:1028300001030493002300234CBF05930493009BE2
:10284000002B3DDB059B009A0A921344059300235D
:102850000793069B092B00F28980052BC4BF043B1C
:102860000693069BA3F10203CCBF00250125032B91
:1028700000F28780DFE803F02D3A3859DDE9105384
:102880001D4405F23243202BC1BFC3F1400305F2C2
:1028900012400BFA03F326FA00F0DABFC3F120036B
:1028A00006FA03F01843FDF72DFE01230646A1F1B9
:1028B000F877013D0E936AE70123B2E70B90B1E789
:1028C000049B009A9B1A04935342079300230A9394
:1028D000BFE700230893099B002B55DC0123CDE9BA
:1028E00002331A4609920CE00123F3E70023099A08
:1028F0000893009B134402930133012B0393B8BF49
:102900000123606A00224260042202F114069E4202
:1029100041683DD9204600F0B7FC019000283BD12A
:10292000114B02464FF4D571C0E60123DFE700BF2B
:1029300061436F63A787D23FB3C8608B288AC63FC5
:10294000FB799F501344D33FCD470008E44700086C
:102950000000F07FC9470008C04700089D470008F5
:102960000000F83F204900086248000801250023C4
:10297000069308954FF0FF33CDE90233002212236E
:10298000B0E701230893F5E7099BCDE90233B8E7E7
:10299000013141605200B8E7636A019A1A60039BF3
:1029A0000E2B00F29D80002D00F09A80009B002BE2
:1029B00032DDB74A03F00F0302EBC303D3E900890A
:1029C000009BD8054FEA231716D5B24B51EC190BD3
:1029D000D3E90823FDF73AFF07F00F0782468B463D
:1029E0000325AC4E57B942464B4650465946FDF773
:1029F0002DFF82468B4628E00225F2E7F90708D52D
:102A000040464946D6E90023FDF7F6FD01358046EC
:102A100089467F100836E5E700F09B80009B9D4FBC
:102A20005E429B4B06F00F0203EBC203D3E9002387
:102A300051EC190BFDF7E0FD361182468B46002361
:102A40000225002E7AD1002BD3D10B9B002B00F056
:102A50008280914B002250465946FEF73FF80028ED
:102A600079D0039B002B76D0029B002B36DD009B98
:102A7000504659465F1E0022884BFDF7BDFD029E61
:102A800082468B4601352846FDF74CFD52465B4693
:102A9000FDF7B2FD824B0022FDF7F8FBD046D94688
:102AA0008246A1F1507B002E58D17E4B0022404639
:102AB0004946FDF7E9FB52465B4680468946FEF7EC
:102AC0002BF8002840F0958252460BF10043404617
:102AD0004946FEF703F8002840F089825BEC19AB09
:102AE000119B002BC0F24881009A0E2A00F344810A
:102AF000674B03EBC203D3E90089099B002B80F2EB
:102B0000D580039B002B00F3D18040F06F82654B92
:102B1000002240464946FDF76FFD52465B46FDF7F1
:102B2000F1FF039E3746002840F04582019D312386
:102B300005F8013B009B0133009340E2F20705D505
:102B4000D7E90023FDF758FD01350123761008373A
:102B500077E7022579E7009F039E94E701994C4BA4
:102B600031440D91089903EBC60353E90223002970
:102B700043D04D490020FDF769FE52465B46FDF704
:102B800083FB019D82468B4649464046FDF7E4FFA4
:102B90000646FDF7C7FC02460B4640464946FDF790
:102BA00073FB303605F8016B52465B46804689461A
:102BB000FDF794FF002863D142464B46364900207A
:102BC000FDF762FB52465B46FDF788FF002840F0A8
:102BD000B5800D9B9D4281D0304B00225046594616
:102BE000FDF70AFD2D4B82468B46404649460022A2
:102BF000FDF702FD80468946C6E750465946FDF777
:102C0000FBFC0D9B019D0F9382468B464946404637
:102C1000FDF7A2FF0646FDF785FC303602460B465F
:102C200040464946FDF730FB05F8016B0D9B9D4280
:102C3000804689464FF0000224D11B4B504659462E
:102C4000FDF724FB02460B4640464946FDF764FF6C
:102C5000002873D152465B4613490020FDF714FB50
:102C600002460B4640464946FDF738FF00283FF430
:102C700035AF0F9D6B1E0F9315F8013C302BF8D02C
:102C8000009749E0054BFDF7B7FC80468946BDE754
:102C900020490008F84800080000F03F00002440E8
:102CA00000001C40000014400000E03F019D56461B
:102CB0005F4642464B4630463946FDF7C7FDFDF7B5
:102CC0004BFF8246FDF72EFC42464B46FDF794FC37
:102CD00002460B46304639460AF13006FDF7D4FA73
:102CE00005F8016B019E039FAE1BB74202460B46DF
:102CF00035D1FDF7CBFA42464B4606460F46FDF767
:102D00000BFFD0B942464B4630463946FDF7DCFE54
:102D100010B11AF0010F10D1204618EE101A00F071
:102D2000F3FA002300982B700C9B01301860219B54
:102D3000002B3FF4F1AC1D60EEE4009F2B461D46D6
:102D400013F8012D392A06D1019A9A42F7D1019937
:102D5000302201370A701A7801321A7090E7A64BB8
:102D60000022FDF749FC0022002306460F46FDF72E
:102D7000ABFE00289DD0CFE7089A002A00F0D7804C
:102D8000069A012A00F3BA800E9A002A00F0B28057
:102D900003F23343079E049D049A1A440492059A51
:102DA00001211A442046059200F066FB0746002DDB
:102DB0000CDD059B002B09DDAB42049AA8BF2B4616
:102DC000D21A0492059AED1AD31A0593079B1BB3E6
:102DD000089B002B00F0AF80002E13DD39463246F1
:102DE000204600F009FC18EE102A0146074620464E
:102DF00000F058FB18EE101A8046204600F084FAC6
:102E000008EE108A079B9A1B06D018EE101A20466F
:102E100000F0F2FB08EE100A0121204600F02CFB26
:102E20000A9B002B064640F388801A46014620463E
:102E300000F0E2FB069B012B064640F381804FF039
:102E40000008336906EB8303186900F0C5FAC0F186
:102E50002000059B184410F01F0000F09280C0F184
:102E60002003042B40F38A80C0F11C00049B034420
:102E70000493059B034405440593049B002B07DD45
:102E800018EE101A1A46204600F010FC08EE100A40
:102E9000059B002B05DD31461A46204600F006FC56
:102EA00006460B9B002B6ED018EE100A314600F040
:102EB0006DFC002867DA009B013B18EE101A0093A6
:102EC0000A220023204600F041FA089B08EE100A6F
:102ED000002B00F0B181002339460A22204600F081
:102EE00035FA029B002B074600F38E80069B022BCF
:102EF00051DC89E0109BC3F136034BE7039B5E1E58
:102F0000079BB342BFBF079B0796F21A0A9BB6BF47
:102F10009B189E1B0A93039BB8BF0026002BB7BFCC
:102F2000DDE90323DDE903359D1A002334E7079E1D
:102F3000049D089F3BE7079A67E7069B012B18DC77
:102F4000BAF1000F15D1CBF3130393B92BF0004363
:102F50001B0D1B0583B1049B01330493059B0133B7
:102F600005934FF001080A9B002B7FF46AAF012004
:102F70006FE74FF00008F6E79846F4E73FF47DAFBF
:102F800018461C3072E7039B002B37DC069B022B94
:102F900034DD039B0293029B6BB931460522204628
:102FA00000F0D4F90146064618EE100A00F0EEFBD8
:102FB00000283FF7BBAD099B019DDB4300934FF019
:102FC00000083146204600F09FF9002F3FF4A4AEE0
:102FD000B8F1000F05D0B84503D04146204600F0B7
:102FE00093F93946204600F08FF995E600263746DA
:102FF000E1E70097374699E500002440089B002B45
:1030000000F0CA80039B0293002D05DD39462A4655
:10301000204600F04BFB0746B8F1000F5BD0796803
:10302000204600F031F9054628B9874B024640F2A8
:10303000EA21FFF73BBB3A690232920007F10C012B
:103040000C3000F013F901222946204600F02EFB37
:10305000019B03F10109DDE90123134405930AF003
:103060000103B84604930746314618EE100AFFF7ED
:1030700075FA4146029000F1300A18EE100A00F08D
:1030800085FB3A4603903146204600F09BFBC26820
:1030900009F1FF3B054602BB014618EE100A00F09D
:1030A00075FB024629462046079200F02DF9DDE91E
:1030B000063243EA0201049B0B434D460FD1BAF19D
:1030C000390F2AD0039B002B02DD029B03F1310A4A
:1030D0008BF800A075E73846BAE70122E2E7039BC8
:1030E000002B04DB06990B4304990B4322D1002AE1
:1030F000EEDD18EE101A0122204600F0D7FA314614
:1031000008EE100A00F042FB002803DCE0D11AF0C0
:10311000010FDDD0BAF1390FD7D139238BF8003048
:103120002B461D46013B15F8012C392A71D001327E
:103130001A7046E7002A07DDBAF1390FEDD00AF11F
:1031400001038BF800303CE7059B09F801AC994579
:1031500047D018EE101A00230A22204600F0F6F895
:10316000B84508EE100A4FF000034FF00A0241463E
:10317000204606D100F0EAF88046074609F1010929
:1031800072E700F0E3F83946804600230A22204621
:1031900000F0DCF80746F1E7039B0293019D18EE6F
:1031A000100A3146FFF7DAF900F1300A019B05F801
:1031B00001ABEA1A029B934209DD18EE101A0023B4
:1031C0000A22204600F0C2F808EE100AE7E7029B48
:1031D000002BC8BF1D46019BD8BF01251D444FF0E1
:1031E000000818EE101A0122204600F05FFA31465E
:1031F00008EE100A00F0CAFA002891DC02D11AF099
:10320000010F8DD12B461D4613F8012D302AFAD01F
:10321000D7E6019A9A4284D1009B0133009331236F
:103220001370CEE6094BFFF795BA219B002B7FF474
:103230006EAA074BFFF78EBA029B002BAEDC069BF3
:10324000022B3FF7A8AEA9E7624800089C47000898
:10325000C04700080048704760010020024B01464B
:10326000186800F017BC00BF0C0000200A4491420F
:1032700000F1FF3300D1704710B511F8014B03F88E
:10328000014F9142F9D110BD70B5466A04460D4612
:1032900076B91020FFF7E2FF0246606220B9184BB2
:1032A0001848662100F07AFCC0E901660660C66035
:1032B000666AF36883B1636ADB6853F82500B8B9BE
:1032C000012101FA05F6721D9200204600F060FB14
:1032D00060B1C0E901560EE021220421204600F031
:1032E00057FB636AF060DB68002BE4D1002070BDFF
:1032F000026843F825200023C0E90333F7E700BF45
:10330000CD4700087348000870B5466A05460C466C
:1033100076B91020FFF7A2FF0246686220B9094B78
:1033200009488A2100F03AFCC0E901660660C660DF
:103330003CB16B6A6268DB6853F82210216043F885
:10334000224070BDCD470008734800082DE9F041C8
:103350000D6907460C461E4601F1140C0020DCF8EE
:10336000003099B202FB01611E0C0B0C02FB06330C
:1033700089B2013001EB034185424CF8041B4FEA4E
:103380001346ECDC0EB3A368AB4219DC6168384627
:103390000131FFF779FF804628B902460C4B0D48F2
:1033A000B52100F0FBFB2269023204F10C0192000E
:1033B0000C30FFF75BFF21463846FFF7A5FF444678
:1033C00004EB850301355E6125612046BDE8F0818F
:1033D0006248000873480008030C1B04D3B90004BA
:1033E000102310F07F4F04BF0002083310F0704F1D
:1033F00004BF0001043310F0404F04BF80000233CB
:10340000002805DB10F0804F03F1010308BF2023E3
:10341000184670470023E4E7036813F007020146EB
:103420000BD0DA0723D4980749BF5B089B0801201B
:103430000B605CBF0B600220704798B2A8B91B0CF0
:103440001020DAB20AB908301B0A1A0704BF1B0998
:1034500004309A0704BF9B080230DA0703D45B08E4
:1034600000F1010005D00B6070471046E9E700202D
:10347000704720207047000010B50C460121FFF76F
:1034800003FF024628B9054B05484FF4A07100F030
:1034900085FB01234461036110BD00BF6248000841
:1034A000734800082DE9F04F91460A69D9F81030A9
:1034B0009A42B8BF0B460C46BCBF4C46994627699A
:1034C000D9F810A0A368616807EB0A06B34285B07B
:1034D000B8BF0131FFF7D8FE30B90246444B45482A
:1034E00040F25D1100F05AFB00F1140505EB86086F
:1034F0002B460022434521D304F1140303EB870735
:1035000009F1140303EB8A0202923A1B153A22F0E6
:103510000302043204F115018F4238BF04220192E4
:10352000029A03939A420CD8002E03DD58F8043D0A
:10353000002B5AD0066105B0BDE8F08F43F8042B8C
:10354000D8E7B3F800A0BAF1000F24D004F1140EAC
:10355000A9464FF0000C5EF8042BD9F800101FFAB2
:1035600082FB89B20AFB0B114FEA124BD9F80020FB
:1035700061444FEA124C0AFB0BC202EB114289B2C2
:1035800041EA0241774549F8041B4FEA124CE2D860
:10359000019A45F802C0039AB2F802900433B9F1D7
:1035A000000F20D0296804F1140CAE464FF0000A39
:1035B000BCF800B0BEF8022009FB0B22924489B28D
:1035C00041EA0A414EF8041B5CF8042BBEF80010D7
:1035D000120C09FB021101EB1A4167454FEA114A2F
:1035E000E6D8019AA95004359AE7013E9CE700BF4E
:1035F00062480008734800082DE9F843154612F0A8
:10360000030206460F4607D0254C013A002354F822
:103610002220FFF79BFE0746AD103DD0746A7CB9AF
:103620001020FFF71BFE0246706228B91D4B1E4892
:103630004FF4D77100F0B2FAC0E901440460C460ED
:10364000D6F82480D8F808404CB940F271213046B1
:10365000FFF712FF0023C8F80800044603604FF08C
:103660000009EB070AD5394622463046FFF71AFF14
:10367000394680463046FFF747FE47466D100BD06F
:10368000206838B9224621463046FFF70BFF2060FC
:10369000C0F800900446E4E73846BDE8F88300BF70
:1036A000E8490008CD470008734800082DE9F047B5
:1036B0000C464968236903EB6218A36807469146E4
:1036C0004FEA621A08F10106B3420BDB3846FFF7F6
:1036D000DBFD054648B902462A4B2B4840F2D9117A
:1036E00000F05CFA01315B00EEE7002300F1140109
:1036F00000F110021846534537DB20692AEAEA7ABE
:1037000004F1140319F01F0901EB8A0103EB800097
:103710002FD0C9F1200E8A464FF0000C1A6802FA29
:1037200009F242EA0C024AF8042B53F8042B98429F
:1037300022FA0EFCF2D8031B153B23F003030433DB
:1037400004F11502904238BF042341F803C0BCF1D4
:10375000000F01D008F10206013E38462E612146D5
:10376000FFF7D2FD2846BDE8F08742F8040F013389
:10377000C1E7043953F8042B41F8042F9842F9D8D3
:10378000EAE700BF624800087348000830B50269E4
:103790000C69121B0ED100F11403143103EB8400E9
:1037A00001EB840150F8045D51F8044DA54203D0AB
:1037B00005D30122104630BD8342F3D3FAE74FF020
:1037C000FF32F7E72DE9F84F0C4606461146204632
:1037D0009046FFF7DBFF051E10D129463046FFF764
:1037E00053FD30B93A4B024640F23221394800F0DD
:1037F000D5F90123C0E90435BDE8F88FA4BF4346DD
:10380000A0463046D8F80410A6BF1C460025012566
:10381000FFF73AFD20B92E4B02464FF41071E5E751
:10382000D8F810702669C56004F1140908F1140570
:1038300000F1140E05EB870C09EB860608F1100267
:10384000F246002159F8043B52F804BF1FFA83F8EE
:1038500011FA8BF11B0CA1EB0808C3EB1B4303EB24
:1038600028431FFA88F819144E4548EA03434AF8DA
:10387000043BE7D8331B153B23F003030433153413
:10388000A64238BF04231D4473449E462E46664517
:103890000ED30CF10302521B22F00302033DAC4590
:1038A00038BF00221A4452F8043D7BB10761A3E7F8
:1038B00056F8048B11FA88F2141404EB184492B2EF
:1038C00042EA04424EF8042B2114E0E7013FEAE704
:1038D00062480008734800082DE9F7438946012132
:1038E00057EC106B9046FFF7CFFC044630B9024608
:1038F000254B264840F20A3100F050F9C7F30A552B
:10390000C7F3130335BB002E019328D068460096F9
:10391000FFF782FD009900B3019AC0F1200302FA7B
:1039200003F30B43C24063610192019BA361002B2F
:1039300014BF022201222261D5B1A5F2334505440C
:10394000C9F80050C0F13500C8F80000204603B0A7
:10395000BDE8F08343F48013D5E76161E5E701A892
:10396000FFF75AFD019B6361012222612030E3E7EA
:1039700004EB8203A0F23240C9F800001869FFF797
:103980002BFDC0EB4210DFE76248000873480008D7
:1039900037B5A1FB02244CB91146019200F07AF828
:1039A000019A054630B9284603B030BD0C220260AA
:1039B0000025F8E72146FEF75FF9F4E737B500295F
:1039C00044D051F8043C0190002BA1F10404B8BF8D
:1039D000E41800F025F91E4A0198136833B96360B2
:1039E000146003B0BDE8304000F020B9A34208D90C
:1039F000256861198B4201BF19685B68491921600C
:103A0000EDE71A465B680BB1A342FAD91168551865
:103A1000A5420BD1246821445418A3421160E0D17F
:103A20001C685B68536021441160DAE702D90C23FB
:103A30000360D6E7256861198B4204BF19685B688B
:103A4000636004BF491921605460CAE703B030BD08
:103A50004002002070B50E4E0C463168054611B983
:103A600000F08CF830602146284600F087F8431CAF
:103A70000AD0C41C24F00304A04207D0211A28460F
:103A800000F07CF8013001D14FF0FF34204670BDCA
:103A9000440200202DE9F041CD1C25F00305083536
:103AA0000C2D38BF0C25002D074601DBA94205D996
:103AB0000C233B6000263046BDE8F0812E4E00F01E
:103AC000AFF833681C4634BB29463846FFF7C2FFBF
:103AD000431C04464DD134682646002E40D123684D
:103AE0003146384604EB030800F048F880453AD1E7
:103AF000216803356D1A25F0030508350C2D38BFF4
:103B00000C2529463846FFF7A5FF01302BD0236846
:103B10002B4423600EE02268521B1ED40B2A16D9B8
:103B20006119A342256018BF5960636808BF3160FE
:103B300062514B60384604F10B0600F077F826F02E
:103B40000706231DF21AB6D09B1BA350B3E7626889
:103B5000A3420CBF32605A60ECE723466468B2E7C8
:103B600034467668B9E70C233B60384600F05EF8CF
:103B7000A1E72560DEE700BF4002002038B5064D12
:103B80000023044608462B6000F0CEFD431C02D102
:103B90002B6803B1236038BD480200201FB51446CE
:103BA0001A46094B1B680546D8684CB1074B009173
:103BB000CDE9013406492B4600F00EF800F064FA16
:103BC000044B1C46F3E700BF0C000020F44900083A
:103BD000014A00082F4A00080EB403B5014603ABA2
:103BE000054853F8042B0068019300F04FF802B029
:103BF0005DF804EB03B070470C00002082B001B9FF
:103C000001A942B14BB113780B601278101E18BF96
:103C1000012002B070471046FBE76FF00100F8E7A3
:103C2000014800F0F1BB00BF4C020020014800F049
:103C3000ECBB00BF4C0200209368013B002B10B48A
:103C4000936008DA9469A34201DB0A2903D15DF885
:103C5000044B00F04BB91368581C106019700846EB
:103C60005DF8044B7047F8B506460F461446D51864
:103C7000AC4201D1002007E014F8011B3A4630465F
:103C8000FFF7DAFF431CF3D1F8BD00002DE9F04F38
:103C90000D469DB014469846064618B183690BB987
:103CA00000F014FB894B9D421BD175686B6ED907E0
:103CB00005D4AB899A0502D4A86D00F0A5FBAB89A9
:103CC0001B0701D52B69EBB92946304600F06EF988
:103CD000C0B16B6EDC070ED54FF0FF301DB0BDE8F4
:103CE000F08F7B4B9D4201D1B568DFE7794B9D4258
:103CF00008BFF568DAE7AB899805EDD4A86D00F048
:103D000084FBE9E70023099320238DF82930CDF8BF
:103D10000C803023DFF8C0818DF82A304FF0010984
:103D200023469A4613F8012B0AB1252AF9D1BAEB9A
:103D3000040B0BD05B46224629463046FFF793FF23
:103D4000013000F0AA80099A5A4409929AF800308A
:103D5000002B00F0A28000234FF0FF32CDE90523B5
:103D60000AF1010A049307938DF853301A935446CD
:103D7000052214F8011B5848FCF732FA049AD8B906
:103D8000D10644BF20238DF85330130744BF2B23A3
:103D90008DF853309AF800302A2B15D0079A5446E4
:103DA00000204FF00A0C214611F8013B303B092B53
:103DB0004ED9B0B1079214E0A0EB080309FA03F35F
:103DC00013430493A246D2E7039B191D1B6803917A
:103DD000002BBBBF5B4242F0020207930793B8BFC0
:103DE000049223782E2B0CD163782A2B35D1039B98
:103DF0001A1D1B680392002BB8BF4FF0FF3302342B
:103E00000593DFF8E4A0217803225046FCF7E8F997
:103E100040B14023A0EB0A0003FA00F0049B0343E7
:103E20000134049314F8011B2C488DF82810062245
:103E3000FCF7D6F900283FD0294B1BBB039B073367
:103E400023F0070308330393099B3B44099367E777
:103E50000CFB02320C460120A5E700230134059338
:103E600019464FF00A0C204610F8012B303A092A67
:103E700003D9002BC5D00591C3E70CFB01210446F3
:103E80000123F0E703AB00932A46164B04A9304602
:103E9000FDF79AFF0746781CD6D16B6ED90705D47B
:103EA000AB899A0502D4A86D00F0AFFAAB895B0626
:103EB0003FF512AF099811E703AB00932A46094B6F
:103EC00004A93046FEF724FAE4E700BF6C4B000873
:103ED0008C4B00084C4B00083A4A0008444A000842
:103EE000C91D0008673C0008404A0008F8B50E46A6
:103EF0001446054618B183690BB900F0E7F9214B68
:103F00009C422BD16C68A369A360A3891A072FD5A3
:103F100023696BB323692068C01A6369F6B28342D0
:103F2000374604DC2146284600F03CF930BBA36844
:103F3000013BA36023685A1C22601E706369013034
:103F4000834204D0A389DB0706D50A2E04D121467B
:103F5000284600F027F988B93846F8BD0A4B9C423C
:103F600001D1AC68CFE7094B9C4208BFEC68CAE7B7
:103F70002146284600F01AF80028CBD04FF0FF3732
:103F8000EAE700BF6C4B00088C4B00084C4B000864
:103F900049B1FF2A85BF8A2303600A704FF0FF30C2
:103FA00098BF01207047084670470000324B70B53B
:103FB0001D6806460C4625B1AB6913B9284600F0CA
:103FC00085F92E4B9C420FD16C68A389B4F90C2063
:103FD00019072CD4DD0611D40923336042F04003C5
:103FE000A3814FF0FF303EE0254B9C4201D1AC68ED
:103FF000EBE7244B9C4208BFEC68E6E7580712D574
:10400000616B41B104F14403994202D03046FFF79D
:10401000D5FC00236363A38923F02403A381002339
:10402000636023692360A38943F00803A3812369A4
:104030004BB9A38903F42073B3F5007F03D0214665
:10404000304600F009FAA089B4F90C2010F0010301
:104050000AD00023A36063695B42A361236943B96B
:1040600010F08000BAD170BD810758BF6369A360AA
:10407000F4E70020F7E700BF0C0000206C4B0008BD
:104080008C4B00084C4B000808B5062000F04CFA99
:10409000012000F05FFB00008A892DE9F041054610
:1040A00010070C4658D44B68002B05DC0B6C002B1A
:1040B00002DC0020BDE8F081E66A002EF9D0002382
:1040C00012F480522F682B6032D0606DA3895A079A
:1040D00005D56368C01A636B0BB1236CC01A00234B
:1040E0000246E66A216A2846B047431CA38906D1E6
:1040F00029681D292CD82A4ACA40D60728D500226B
:104100006260D9042269226004D5421C01D12B6867
:1041100003B96065616B2F600029CAD004F14403C4
:10412000994202D02846FFF749FC00206063C1E7AE
:10413000216A01232846B047411CC7D12B68002BB8
:10414000C4D01D2B01D0162B01D12F60B1E7A3895C
:1041500043F04003A381ADE70F69002FA9D0930777
:104160000E6808BF4B690F6018BF0023A6EB070855
:104170008B60B8F1000F9CDD216AA66A43463A467F
:104180002846B047002806DCA38943F04003A381FA
:104190004FF0FF308EE70744A8EB0008E9E700BFC7
:1041A0000100402038B50B6905460C4613B90025BF
:1041B000284638BD18B183690BB900F087F8144B55
:1041C0009C421BD16C68B4F90C30002BEFD0626EAE
:1041D000D00704D4990502D4A06D00F015F9284643
:1041E0002146FFF759FF636EDA070546E0D4A3893D
:1041F0009B05DDD4A06D00F008F9D9E7054B9C4282
:1042000001D1AC68DFE7044B9C4208BFEC68DAE7F9
:104210006C4B00088C4B00084C4B0008002310B579
:104220000446C0E90033C0E90433836081814366FA
:10423000C2818361194608225C30FDF71DFD054BE4
:104240006362054BA362054BE362054B2462236363
:1042500010BD00BF6145000883450008BB4500084C
:10426000DF450008014900F0AFB800BFA5410008D4
:1042700070B568224D1E55430E4605F17401FFF7D7
:1042800009FC044640B10021C0E900160C30A060D2
:1042900005F16802FDF7F0FC204670BD014800F012
:1042A000B3B800BF4D020020014800F0AEB800BF17
:1042B0004D020020014800F0A7B800BF4E020020C8
:1042C000014800F0A2B800BF4E02002010B504461D
:1042D000FFF7F0FFA3691BB1BDE81040FFF7F0BF87
:1042E000C4E912332365134B134A1B68A262A3422D
:1042F00004BF0123A361204600F020F8606020463F
:1043000000F01CF8A060204600F018F80022E060E1
:1043100004216068FFF782FFA06801220921FFF7EE
:104320007DFFE06802221221FFF778FF0123A361DD
:10433000D2E700BF8847000865420008F8B5074685
:10434000FFF7ACFF1E4B1E68B36913B93046FFF789
:10435000BDFF4836D6E90134013B03D533680BB3C2
:104360003668F7E7B4F90C50D5B9164BE36004F1A1
:104370005800656600F047F8FFF796FFC4E901555D
:10438000C4E904552560A5610822294604F15C00B2
:10439000FDF772FCC4E90D55C4E912552046F8BD7D
:1043A0006834D9E704213846FFF762FF04463060DD
:1043B0000028D5D1FFF778FF0C233B60EEE700BF64
:1043C000884700080100FFFF2DE9F84306468846AC
:1043D00000F148040027D4E90195B9F1010905D598
:1043E0002468002CF7D13846BDE8F883AB89012B4F
:1043F00007D9B5F90E30013303D029463046C047FE
:1044000007436835E9E770477047704770B50E4657
:10441000B1F90E10002996B014461D4608DAB6F917
:104420000C3000222A601A0610D44FF480630EE08C
:104430006A4600F0FBF80028F1DB019A02F47042B2
:10444000A2F500535A425A412A60EEE74023002069
:10445000236016B070BD00008B8973B59D070646BA
:104460000C4607D504F147032360236101236361F0
:1044700002B070BD01AB6A46FFF7C8FF0099054660
:104480003046FFF707FB48B9B4F90C309A05EFD472
:1044900023F0030343F00203A381E3E70D4BB36270
:1044A000A389206043F08003A381009B6361019B8B
:1044B00020615BB1B4F90E10304600F0C9F828B1A4
:1044C000A38923F0030343F00103A381A0890543DB
:1044D000A581CDE7654200081F2938B504460D4681
:1044E00004D9162303604FF0FF3038BD426C12B17F
:1044F00052F821304BB9204600F030F82A460146E8
:104500002046BDE8384000F017B8012B0AD0591CEE
:1045100003D1162303600120E7E7002442F8254079
:10452000284698470020E0E7024B01461868FFF74D
:10453000D3BF00BF0C00002038B5074D0023044650
:10454000084611462B6000F0D7F8431C02D12B68B7
:1045500003B1236038BD00BF4802002000F0BCB8A2
:1045600010B50C46B1F90E1000F094F80028ABBF5E
:10457000636DA3891B1823F48053ACBF6365A381CB
:1045800010BD2DE9F0411F468B89DB0505460C4621
:10459000164605D5B1F90E100223002200F068F886
:1045A000A389B4F90E1023F48053A38132463B460D
:1045B0002846BDE8F04100F017B810B50C46B1F937
:1045C0000E1000F055F8431CA38915BF606523F455
:1045D000805343F48053A38118BFA38110BDB1F968
:1045E0000E1000F013B8000038B5074D0446084619
:1045F000114600222A601A4600F0A4F8431C02D19A
:104600002B6803B1236038BD4802002038B5064D41
:104610000023044608462B6000F04EF8431C02D1EC
:104620002B6803B1236038BD4802002038B5074D20
:1046300000230446084611462B6000F045F8431C51
:1046400002D12B6803B1236038BD00BF48020020AF
:1046500038B5064D0023044608462B6000F044F8A8
:10466000431C02D12B6803B1236038BD48020020EF
:1046700038B5074D04460846114600222A601A46FE
:1046800000F042F8431C02D12B6803B1236038BD0F
:104690004802002038B5074D04460846114600225E
:1046A0002A601A4600F038F8431C02D12B6803B187
:1046B000236038BD48020020024B58221A604FF098
:1046C000FF30704748020020024B58221A604FF01A
:1046D000FF30704748020020024B58221A604FF00A
:1046E000FF30704748020020024B58221A60002019
:1046F000704700BF48020020024B58221A604FF05A
:10470000FF30704748020020024B58221A604FF0D9
:10471000FF30704748020020024B58221A604FF0C9
:10472000FF30704748020020044A05491368002BF7
:1047300008BF0B461844106018467047500200200E
:1047400058020020024B58221A604FF0FF30704789
:1047500048020020FEE700BFF8B500BFF8BC08BC67
:104760009E467047F8B500BFF8BC08BC9E4670472F
:104770000000000000000000010203040607080911
:10478000000000000102030410000020494E460012
:10479000696E66004E414E006E616E003000303131
:1047A0003233343536373839414243444546003098
:1047B00031323334353637383961626364656600C7
:1047C000496E66696E697479004E614E00524545C6
:1047D0004E54206D616C6C6F632073756363656507
:1047E000646564002F6D6E742F776F726B737061E8
:1047F00063652F776F726B73706163652F474343F7
:104800002D31302D706970656C696E652F6A656E2B
:104810006B696E732D4743432D31302D7069706580
:104820006C696E652D3333385F323032313130315F
:10483000385F313633343531363230332F7372636B
:104840002F6E65776C69622F6E65776C69622F6C6D
:104850006962632F7374646C69622F64746F612E74
:10486000630042616C6C6F6320737563636565649C
:104870006564002F6D6E742F776F726B7370616358
:10488000652F776F726B73706163652F4743432D9C
:1048900031302D706970656C696E652F6A656E6B5D
:1048A000696E732D4743432D31302D706970656CEF
:1048B000696E652D3333385F323032313130313803
:1048C0005F313633343531363230332F7372632FE4
:1048D0006E65776C69622F6E65776C69622F6C69A3
:1048E00062632F7374646C69622F6D707265632EDE
:1048F00063000000000000000080E03779C34143FE
:10490000176E05B5B5B89346F5F93FE9034F384D35
:10491000321D30F94877825A3CBF737FDD4F1575E1
:10492000000000000000F03F0000000000002440F4
:1049300000000000000059400000000000408F40CF
:10494000000000000088C34000000000006AF8403A
:104950000000000080842E4100000000D01263415E
:104960000000000084D797410000000065CDCD41D4
:10497000000000205FA00242000000E876483742B5
:10498000000000A2941A6D42000040E59C30A24253
:104990000000901EC4BCD64200003426F56B0C43C8
:1049A0000080E03779C3414300A0D885573476436F
:1049B00000C84E676DC1AB43003D9160E458E143D0
:1049C000408CB5781DAF154450EFE2D6E41A4B4445
:1049D00092D54D06CFF08044F64AE1C7022DB5448A
:1049E000B49DD9794378EA4405000000190000001D
:1049F0007D0000002C2066756E6374696F6E3A202E
:104A000000617373657274696F6E202225732220B2
:104A10006661696C65643A2066696C65202225735D
:104A2000222C206C696E65202564257325730A008D
:104A30004300504F534958002E00232D302B2000A7
:104A4000686C4C00656667454647000020202020C2
:104A5000202020202028282828282020202020202E
:104A6000202020202020202020202020881010100E
:104A70001010101010101010101010100404040466
:104A800004040404040410101010101010414141DB
:104A90004141410101010101010101010101010146
:104AA00001010101010101101010101010424242D9
:104AB0004242420202020202020202020202020216
:104AC0000202020202020210101010200000000078
:104AD00000000000000000000000000000000000D6
:104AE00000000000000000000000000000000000C6
:104AF00000000000000000000000000000000000B6
:104B000000000000000000000000000000000000A5
:104B10000000000000000000000000000000000095
:104B20000000000000000000000000000000000085
:104B30000000000000000000000000000000000075
:104B40000000000000000000000000000000000065
:104B50000000000000000000000000000000000055
:104B60000000000000000000000000000000000045
:104B70000000000000000000000000000000000035
:104B80000000000000000000000000000000000025
:104B90000000000000000000000000000000000015
:0C4BA00000000000000000000000000009
:084BAC002CC0FF7F0100000096
:044BB400B50100083F
:044BB800910100085F
:104BBC0001000000100000000024F4001000002090
:104BCC00000000006C4B00088C4B00084C4B00089C
:104BDC0000000000000000000000000000000000C9
:104BEC0000000000000000000000000000000000B9
:104BFC0000000000000000000000000000000000A9
:104C0C000000000000000000000000000000000098
:104C1C000000000000000000000000000000000088
:104C2C004300000000000000000000000000000035
:104C3C000000000000000000000000000000000068
:104C4C004300000000000000000000000000000015
:104C5C000000000000000000000000000000000048
:104C6C0043000000000000000000000000000000F5
:104C7C000000000000000000000000000000000028
:104C8C0043000000000000000000000000000000D5
:104C9C000000000000000000000000000000000008
:104CAC0043000000000000000000000000000000B5
:104CBC0000000000000000000000000000000000E8
:104CCC004300000000000000000000000000000095
:104CDC0000000000000000000000000000000000C8
:104CEC004300000000000000000000000000000075
:104CFC0000000000000000000000000000000000A8
:104D0C00913F0008FD3B0008000000004B4A0008E2
:104D1C00384A00082F4A00082F4A00082F4A00087A
:104D2C002F4A00082F4A00082F4A00082F4A000873
:104D3C002F4A00082F4A0008FFFFFFFFFFFFFFFF6D
:104D4C00FFFFFFFFFFFF00000100415343494900F3
:104D5C000000000000000000000000000000000047
:104D6C0000000000000000000000415343494900CE
:104D7C000000000000000000000000000000000027
:0C4D8C000000000000000000000000001B
:0400000508001BDDF7
:00000001FF
